:10780000112484B714BE982F9D7009F084D258D1EA
:1078100085E08093810082E08093C00088E18093BE
:10782000C10086E08093C20080E18093C4008EE0B6
:107830005BD2259A86E028E13EEF91E03093850007
:107840002093840096BBB09BFECF1D9AA8958150D3
:10785000A9F7C0E0D0E093E0F92EEE24E39425E010
:10786000D22E31E1C32E86D0813471F483D0182F0B
:1078700041D2123811F482E005C0113811F486E0CB
:1078800001C083E070D06CC0823411F484E103C085
:10789000853419F485E037D263C0853541F46AD068
:1078A000C82F68D0D0E0D82BCC0FDD1F58C086354C
:1078B00021F484E028D280E0E5CF843609F032C09C
:1078C00059D058D0B82E56D0A82E00E011E052D092
:1078D000F80181938F01BE12FACF0CD2F5E4AF12FA
:1078E00001C0FFCFFE01F7BEE89507B600FCFDCF53
:1078F000FE01A0E0B1E08C9111962C91119790E0DF
:10790000922B0C01E7BEE895112432961296BA121A
:10791000F2CFFE01D7BEE89507B600FCFDCFC7BE8B
:10792000E8951EC0843771F425D024D0B82E22D01B
:10793000E1D18E01F80185918F0115D0BA94B11073
:10794000F9CF0EC0853739F4D5D18EE10CD085E959
:107950000AD08FE097CF813511F488E0C5D1CAD124
:1079600080E101D080CF9091C00095FFFCCF809343
:10797000C60008958091C00087FFFCCF8091C000B1
:1079800084FD01C0A8958091C600089581E0909182
:107990003A01963309F080E00895CF92DF92EF929A
:1079A000FF921F93CF93DF93EC01162F462F60E0D9
:1079B00070E0CB016DD2EADF811110C0C090C60229
:1079C000D090C702E090C802F090C902412FC701D1
:1079D000B6015ED2DBDF811104C051C0C12CD12CB5
:1079E000760180910D01888780910E0190910F01A1
:1079F000C80ED91EE11CF11CC882D982EA82FB8222
:107A00008091160190911701880F991FC80ED91EF9
:107A1000E11CF11C809111019091120135E0880F59
:107A2000991F3A95E1F7892F99278695A701960125
:107A3000280F391F411D511D2C833D834E835F83C9
:107A4000412FC701B60124D2E0E0F1E08081882314
:107A5000B1F08634B9F481818934A1F48281823510
:107A600089F483818D3471F48085883459F481855B
:107A7000853441F48285883529F4CF010EC080E039
:107A800090E00BC0B096E11543E0F407F9F63FEF44
:107A9000C31AD30AE30AF30AD3CFDF91CF911F9120
:107AA000FF90EF90DF90CF90089525E0FC0127BF75
:107AB000E89507B600FCFDCF81E187BFE895089502
:107AC000A5E1B0E0E5E6FDE35EC282D18E878823C2
:107AD00009F4FFC0682FCE0101965FDF009709F41B
:107AE000F8C0FC01028CF38DE02DFD87EC87FC01D2
:107AF000448C558C668C778C2C853D8522503109C1
:107B00004985429FC001439F900D1124CD80DE80A6
:107B1000EF80F884C80ED91EE11CF11C4E85C70108
:107B2000B601B6D1212C312CA12CB12C4E01FAE09A
:107B30008F0E911C1A8A11E000E0198A20E031E0D2
:107B4000388B2F878C8A9D8A4114510461047104FB
:107B500009F4BFC0EF85F8892191F88BEF872B8B53
:107B600031E0431A510861087108E115F34008F447
:107B70003FC099899F5F998B8985981730F4EFEF03
:107B8000CE1ADE0AEE0AFE0A2BC08C859D85292FAF
:107B9000332789819A81AB81BC81BC01CD01620F01
:107BA000731F811D911D4E8573D1EC85FD85FF27C7
:107BB000EE0FFF1FF395208131813D872C872250E6
:107BC00031094985429FC001439F900D1124CD800A
:107BD000DE80EF80F884C80ED91EE11CF11C198AE2
:107BE0004E85C701B60154D180E091E0988B8F8714
:107BF000011105C09B899A3391F01F5F10C0F401F9
:107C000080818295807F8083FB89FA3318F49F2FCF
:107C1000905302C09B899753890FF40180831150C0
:107C2000123021F4FFEF8F1A9F0A8ECF11118CCFE3
:107C3000002309F43FC0013031F48A859B85969575
:107C400087958A8B4CC0023009F434C0033061F44C
:107C50008A859B85019709F042C0A214B30409F4F8
:107C60003BC0C50122DF38C0A214B30439F423E0BD
:107C7000F50127BFE89507B600FCFDCF8A859B85F7
:107C800021E0F1010C0127BFE895112432E0230E19
:107C9000311C8A8981508A8BC1018A199B098038DD
:107CA000910528F0C50101DF90E8A90EB11C043050
:107CB00021F001C012E00F5F07C0EA89EE2311F046
:107CC00014E002C011E000E01B861A868C889D88B3
:107CD0003BCF8FEF9FEF05C080E090E002C014E043
:107CE000EACF6596E2E16BC1E0E6F0E098E19083CF
:107CF000808308953FDE803219F088E0F5DFFFCF02
:107D000084E131CE0895CF93C82F34DEC150E9F716
:107D1000F1DFCF910895282E80E0E6DFE0E0FF2735
:107D200009948CE284B980E58CBD08958EBD000075
:107D30000DB407FEFDCF8EB508958FEFF7CF0895F0
:107D4000FCDF8F3FE9F781E00895409A089588B1FC
:107D500018B80895A4E0B0E0EFEAFEE323C1182FBD
:107D600049835A836B837C838111EADF812F80648E
:107D7000DDDF8C81DBDF8B81D9DF8A81D7DF8981F1
:107D8000D5DF112311F087E801C085E9CFDFD5DF0A
:107D90001BE0D3DF87FF02C01150D9F72496E3E040
:107DA0001DC1CF92DF92EF92FF92CF93C82F6A014D
:107DB0007B0140E050E0BA0187E3CCDFB701A601C8
:107DC0008C2FC8DFCF91FF90EF90DF90CF90089578
:107DD000A0E0B0E0EDEEFEE3E0C08CE284B9389ABA
:107DE000B4DF80E58CBD81E08DBDB1DFAEDFCAE0E0
:107DF000A4DFC150E9F7ABDF0BE010E040E050E05A
:107E0000BA0180E0A7DF813021F001501109B1F7FC
:107E100038C04AEA51E060E070E088E09BDF8530DE
:107E200069F08BDF8ADF89DF88DF8A3A51F5D2E09B
:107E3000C12CD12CE12C80E4F82E04C0D1E0C12C5F
:107E4000D12C7601B701A60189E2ABDF8111FACF0F
:107E5000D23081F440E050E0BA018AE37BDF811147
:107E600010C06BDF807C803C09F4D3E066DF65DF07
:107E700064DF01C0D1E080E58CBD67DF5EDFCD2F20
:107E800002C063DF5ADF8C2FCDB7DEB7E8E0A1C0B8
:107E9000CF92DF92EF92FF92CF93DF936B017C0141
:107EA000C42F55DFC33039F089E0CC0CDD1CEE1C4B
:107EB000FF1C8A95D1F7B701A60181E14BDF811143
:107EC00013C03BDF8F3FE9F38E3F71F4C0E0D1E098
:107ED00034DF8993C11583E0D807D1F72EDF2DDF7A
:107EE00034DF2BDF81E003C030DF27DF80E0DF916C
:107EF000CF91FF90EF90DF90CF900895CF92DF92D7
:107F0000EF92FF92CF93DF936B017C01C42F1FDFB1
:107F1000C33039F089E0CC0CDD1CEE1CFF1C8A95C7
:107F2000D1F7B701A60188E115DF811121C08EEFDD
:107F3000FDDEC0E0D1E08991F9DEC11583E0D8070C
:107F4000D1F7FBDEFADEF9DE8F71853089F4F8DED9
:107F5000C82F882369F040E050E0BA018DE0FADED6
:107F6000811106C0EADE811103C0EFDEE6DE03C048
:107F7000ECDEE3DEC0E08C2FDF91CF91FF90EF903D
:107F8000DF90CF9008952F923F924F925F926F9221
:107F90007F928F929F92AF92BF92CF92DF92EF9299
:107FA000FF920F931F93CF93DF93CDB7DEB7CA1B1A
:107FB000DB0B0FB6F894DEBF0FBECDBF09942A8845
:107FC000398848885F846E847D848C849B84AA84ED
:107FD000B984C884DF80EE80FD800C811B81AA817A
:107FE000B981CE0FD11D0FB6F894DEBF0FBECDBF45
:047FF000ED01089502
:040000030000780081
:00000001FF
