:107800001F92CDB7DEB7112484B714BE982F9D7098
:1078100009F080D250D185E08093810082E080938E
:10782000C00088E18093C10086E08093C20080E1BF
:107830008093C4008EE058D2259A26E088E19EEF1E
:1078400031E0909385008093840036BBB09BFECFDF
:107850001D9AA8952150A9F7812C912CF3E0FF2EB9
:10786000EE24E394A5E0DA2EB1E1CB2E8AD0813468
:1078700079F487D089833ED28981823811F482E0FD
:1078800005C0813811F486E001C083E073D06FC079
:10789000823411F484E103C0853419F485E032D2D6
:1078A00066C0853541F46DD0882E6BD0912C982A16
:1078B000880C991C5BC0863521F484E023D280E0DB
:1078C000E5CF843609F036C05CD05BD0B82E59D0F5
:1078D000A82E00E011E055D0F80181938F01BE126F
:1078E000FACF08D2F5E4AF1201C0FFCFF401F7BE22
:1078F000E89507B600FCFDCFB401A0E0B1E02C9103
:107900001296AD0141505109FA01808130E0382BC7
:10791000FB010901E7BEE89511246E5F7F4FBA12A3
:10792000EECFF401D7BEE89507B600FCFDCFC7BE89
:10793000E8951DC0843769F424D023D0B82E21D017
:10794000D9D18401F80185918F0114D0BA94D1F76F
:107950000EC0853739F4CED18EE10CD085E90AD03E
:107960008FE094CF813511F488E0BED1C3D180E19E
:1079700001D07CCF9091C00095FFFCCF8093C600D2
:1079800008958091C00087FFFCCF8091C00084FDE6
:1079900001C0A8958091C600089581E090913A01B8
:1079A000963309F080E00895CF92DF92EF92FF9234
:1079B0001F93CF93DF93EC01162F462F60E070E00A
:1079C000CB0187D2EADF811112C0C090C602D090ED
:1079D000C702E090C802F090C902412FC701B6016A
:1079E00078D2DBDF811106C080E090E051C0C12C6D
:1079F000D12C760180910D01888780910E019091A4
:107A00000F01C80ED91EE11CF11CC882D982EA827E
:107A1000FB828091160190911701880F991FC80E63
:107A2000D91EE11CF11C809111019091120135E0E9
:107A3000880F991F3A95E1F7892F99278695A70115
:107A40009601280F391F411D511D2C833D834E8304
:107A50005F83412FC701B6013CD2AAE0B1E0E0E06C
:107A6000F1E08081882309F4BFCF863429F48C911A
:107A7000883511F4CF010CC0B0969096E11543E023
:107A8000F40779F73FEFC31AD30AE30AF30AE1CF09
:107A9000DF91CF911F91FF90EF90DF90CF900895ED
:107AA00025E0FC0127BFE89507B600FCFDCF81E18A
:107AB00087BFE8950895A4E1B0E0E0E6FDE365C284
:107AC0009BD1382E811103C08FEF9FEF0AC1682F21
:107AD000CE01019669DF0097B9F3FC01028CF38DAA
:107AE000E02DFD87EC87FC01448C558C668C778CEF
:107AF0002C853D85225031094985429FC001439F15
:107B0000900D1124CD80DE80EF80F884C80ED91E40
:107B1000E11CF11C432DC701B601DBD1A12CB12C16
:107B2000812C912C8E01065F1F4F21E0212C30E02B
:107B300060E071E00F87188B4114510461047104F7
:107B400019F2FB015191BF01F1E04F1A5108610890
:107B50007108611543E0740708F445C03F5F8985EB
:107B6000381730F48FEFC81AD80AE80AF80A2FC07D
:107B70008C859D85E92FFF2769817A818B819C8186
:107B80006E0F7F1F811D911D432D2C8B598BA1D111
:107B90008C859D859927880F991FFC01F39580811D
:107BA00091819D878C87BC01625071093985369F10
:107BB000C001379F900D1124CD80DE80EF80F884C6
:107BC000C80ED91EE11CF11C30E059892C89432DC7
:107BD000C701B6012C8B3B8B598B7BD160E071E0E8
:107BE00059893B892C89211004C05A3381F02F5FB9
:107BF0000EC0F80180818295807F80835A3318F40B
:107C00005053580F03C05753580FF8015083215059
:107C1000223019F40F5F1F4F8FCF21118DCF2220FB
:107C200009F44BC0F1E02F1206C08A859B8596951A
:107C300087958E8754C042E0241609F43EC083E045
:107C400028120CC08A859B85019709F048C0A814AA
:107C5000B90409F441C0C40123DF3EC0A814B9042B
:107C600039F443E0F50147BFE89507B600FCFDCFC6
:107C70008A859B8541E0F5010C0147BFE8951124F9
:107C800082E0A80EB11C9E8591509E87C50188197F
:107C900099098038910568F0C4012C8B3B8B698B66
:107CA0007A8BFEDEE0E88E0E911C7A8969893B8929
:107CB0002C89F4E02F1621F001C022E0239407C0A4
:107CC0002E85211103C021E0212C01C024E01B8658
:107CD0001A860F85188930CF80E090E002C024E03A
:107CE000EDCF6496E2E16DC1E0E6F0E098E19083CB
:107CF0008083089546DE803219F088E0F5DFFFCFFB
:107D000084E138CECF93C82F3CDEC150E9F7F2DFD3
:107D1000CF910895282E80E0E7DFE0E0FF27099467
:107D2000229A80E58CBD259A239A08958EBD000085
:107D30000DB407FEFDCF8EB508951F93CF93DF934B
:107D4000182FCFEFDFEF8FEFF1DF811729F02197A9
:107D50002097C9F780E001C081E0DF91CF911F91AA
:107D60000895409A8FEFE2CF88B118B80895A4E043
:107D7000B0E0ECEBFEE318C1182F49835A836B8304
:107D80007C83F2DF8FEFD9DF812F8064CFDF8C819E
:107D9000CDDF8B81CBDF8A81C9DF8981C7DF1111FC
:107DA00002C085E901C087E8C1DF1C3011F48FEF04
:107DB000BDDF10E08FEFBADF87FF04C01F3F11F077
:107DC0001F5FF8CF2496E3E00BC1CF92DF92EF92D2
:107DD000FF92CF93C82F6A017B0140E050E0BA01C7
:107DE00087E3C5DFB701A6018C2FC1DFCF91FF90DC
:107DF000EF90DF90CF900895A0E0B0E0E1E0FFE3E6
:107E0000CDC0389A409A8CDFBCB48CB581618CBDF2
:107E1000ABDFA7DF1AE08FEF89DF1150E1F7C9EE82
:107E2000D3E040E050E0BA0180E0A1DF813021F0F2
:107E300021972097B1F747C0C9EED3E04AEA51E055
:107E400060E070E088E093DF853059F004E08FEF68
:107E50006DDF0150E1F78A3A49F02197209771F7D9
:107E600032C001E0C12CD12C760106C002E0C12C49
:107E7000D12CE12C80E4F82EC9EED3E0B701A601A5
:107E800089E2A3DF882321F021972097B9F71BC04F
:107E90000230A1F440E050E0BA018AE368DF8111CA
:107EA00012C08FEF43DF807C803C09F403E08FEF4A
:107EB0003DDF8FEF3BDF8FEF39DF01C001E051DFA6
:107EC000BCBC102F01C04DDF812FCDB7DEB7E9E07C
:107ED00081C0CF93DF93433039F029E0660F771FDD
:107EE000881F991F2A95D1F7AB01BC0181E13FDFC3
:107EF000811116C08FEF1ADF8F3FE1F38E3F81F4BF
:107F0000C0E0D1E08FEF12DF8993C11583E0D8077D
:107F1000C9F78FEF0BDF8FEF09DF23DF81E002C0AE
:107F200020DF80E0DF91CF910895CF93DF9343303E
:107F300039F039E0660F771F881F991F3A95D1F7FE
:107F4000AB01BC0188E113DF81111AC08FEFEEDEB7
:107F50008FEFECDE8EEFEADEC0E0D1E08991E6DE65
:107F6000C11583E0D807D1F78FEFE0DE8FEFDEDEBB
:107F70008FEFDCDE8F71853019F4F3DE81E002C013
:107F8000F0DE80E0DF91CF9108952F923F924F92E3
:107F90005F926F927F928F929F92AF92BF92CF9299
:107FA000DF92EF92FF920F931F93CF93DF93CDB7A2
:107FB000DEB7CA1BDB0B0FB6F894DEBF0FBECDBF1A
:107FC00009942A88398848885F846E847D848C84EB
:107FD0009B84AA84B984C884DF80EE80FD800C81F4
:107FE0001B81AA81B981CE0FD11D0FB6F894DEBFD7
:087FF0000FBECDBFED010895A5
:040000030000780081
:00000001FF
